{
  "contractName": "LipToken",
  "abi": [
    {
      "inputs": [
        {
          "internalType": "string",
          "name": "_name",
          "type": "string"
        },
        {
          "internalType": "string",
          "name": "_symbol",
          "type": "string"
        }
      ],
      "stateMutability": "nonpayable",
      "type": "constructor"
    },
    {
      "anonymous": false,
      "inputs": [
        {
          "indexed": true,
          "internalType": "address",
          "name": "owner",
          "type": "address"
        },
        {
          "indexed": true,
          "internalType": "address",
          "name": "approved",
          "type": "address"
        },
        {
          "indexed": true,
          "internalType": "uint256",
          "name": "tokenId",
          "type": "uint256"
        }
      ],
      "name": "Approval",
      "type": "event"
    },
    {
      "anonymous": false,
      "inputs": [
        {
          "indexed": true,
          "internalType": "address",
          "name": "owner",
          "type": "address"
        },
        {
          "indexed": true,
          "internalType": "address",
          "name": "operator",
          "type": "address"
        },
        {
          "indexed": false,
          "internalType": "bool",
          "name": "approved",
          "type": "bool"
        }
      ],
      "name": "ApprovalForAll",
      "type": "event"
    },
    {
      "anonymous": false,
      "inputs": [
        {
          "indexed": true,
          "internalType": "address",
          "name": "owner",
          "type": "address"
        },
        {
          "indexed": false,
          "internalType": "uint256",
          "name": "id",
          "type": "uint256"
        },
        {
          "indexed": false,
          "internalType": "uint256",
          "name": "dna",
          "type": "uint256"
        }
      ],
      "name": "NewLip",
      "type": "event"
    },
    {
      "anonymous": false,
      "inputs": [
        {
          "indexed": true,
          "internalType": "address",
          "name": "previousOwner",
          "type": "address"
        },
        {
          "indexed": true,
          "internalType": "address",
          "name": "newOwner",
          "type": "address"
        }
      ],
      "name": "OwnershipTransferred",
      "type": "event"
    },
    {
      "anonymous": false,
      "inputs": [
        {
          "indexed": true,
          "internalType": "address",
          "name": "from",
          "type": "address"
        },
        {
          "indexed": true,
          "internalType": "address",
          "name": "to",
          "type": "address"
        },
        {
          "indexed": true,
          "internalType": "uint256",
          "name": "tokenId",
          "type": "uint256"
        }
      ],
      "name": "Transfer",
      "type": "event"
    },
    {
      "inputs": [
        {
          "internalType": "address",
          "name": "to",
          "type": "address"
        },
        {
          "internalType": "uint256",
          "name": "tokenId",
          "type": "uint256"
        }
      ],
      "name": "approve",
      "outputs": [],
      "stateMutability": "nonpayable",
      "type": "function"
    },
    {
      "inputs": [
        {
          "internalType": "address",
          "name": "owner",
          "type": "address"
        }
      ],
      "name": "balanceOf",
      "outputs": [
        {
          "internalType": "uint256",
          "name": "",
          "type": "uint256"
        }
      ],
      "stateMutability": "view",
      "type": "function",
      "constant": true
    },
    {
      "inputs": [
        {
          "internalType": "uint256",
          "name": "tokenId",
          "type": "uint256"
        }
      ],
      "name": "getApproved",
      "outputs": [
        {
          "internalType": "address",
          "name": "",
          "type": "address"
        }
      ],
      "stateMutability": "view",
      "type": "function",
      "constant": true
    },
    {
      "inputs": [
        {
          "internalType": "address",
          "name": "owner",
          "type": "address"
        },
        {
          "internalType": "address",
          "name": "operator",
          "type": "address"
        }
      ],
      "name": "isApprovedForAll",
      "outputs": [
        {
          "internalType": "bool",
          "name": "",
          "type": "bool"
        }
      ],
      "stateMutability": "view",
      "type": "function",
      "constant": true
    },
    {
      "inputs": [
        {
          "internalType": "uint256",
          "name": "",
          "type": "uint256"
        }
      ],
      "name": "lips",
      "outputs": [
        {
          "internalType": "string",
          "name": "name",
          "type": "string"
        },
        {
          "internalType": "uint256",
          "name": "id",
          "type": "uint256"
        },
        {
          "internalType": "uint256",
          "name": "dna",
          "type": "uint256"
        },
        {
          "internalType": "uint8",
          "name": "level",
          "type": "uint8"
        },
        {
          "internalType": "uint8",
          "name": "rarity",
          "type": "uint8"
        }
      ],
      "stateMutability": "view",
      "type": "function",
      "constant": true
    },
    {
      "inputs": [],
      "name": "name",
      "outputs": [
        {
          "internalType": "string",
          "name": "",
          "type": "string"
        }
      ],
      "stateMutability": "view",
      "type": "function",
      "constant": true
    },
    {
      "inputs": [],
      "name": "owner",
      "outputs": [
        {
          "internalType": "address",
          "name": "",
          "type": "address"
        }
      ],
      "stateMutability": "view",
      "type": "function",
      "constant": true
    },
    {
      "inputs": [
        {
          "internalType": "uint256",
          "name": "tokenId",
          "type": "uint256"
        }
      ],
      "name": "ownerOf",
      "outputs": [
        {
          "internalType": "address",
          "name": "",
          "type": "address"
        }
      ],
      "stateMutability": "view",
      "type": "function",
      "constant": true
    },
    {
      "inputs": [],
      "name": "renounceOwnership",
      "outputs": [],
      "stateMutability": "nonpayable",
      "type": "function"
    },
    {
      "inputs": [
        {
          "internalType": "address",
          "name": "from",
          "type": "address"
        },
        {
          "internalType": "address",
          "name": "to",
          "type": "address"
        },
        {
          "internalType": "uint256",
          "name": "tokenId",
          "type": "uint256"
        }
      ],
      "name": "safeTransferFrom",
      "outputs": [],
      "stateMutability": "nonpayable",
      "type": "function"
    },
    {
      "inputs": [
        {
          "internalType": "address",
          "name": "from",
          "type": "address"
        },
        {
          "internalType": "address",
          "name": "to",
          "type": "address"
        },
        {
          "internalType": "uint256",
          "name": "tokenId",
          "type": "uint256"
        },
        {
          "internalType": "bytes",
          "name": "_data",
          "type": "bytes"
        }
      ],
      "name": "safeTransferFrom",
      "outputs": [],
      "stateMutability": "nonpayable",
      "type": "function"
    },
    {
      "inputs": [
        {
          "internalType": "address",
          "name": "operator",
          "type": "address"
        },
        {
          "internalType": "bool",
          "name": "approved",
          "type": "bool"
        }
      ],
      "name": "setApprovalForAll",
      "outputs": [],
      "stateMutability": "nonpayable",
      "type": "function"
    },
    {
      "inputs": [
        {
          "internalType": "bytes4",
          "name": "interfaceId",
          "type": "bytes4"
        }
      ],
      "name": "supportsInterface",
      "outputs": [
        {
          "internalType": "bool",
          "name": "",
          "type": "bool"
        }
      ],
      "stateMutability": "view",
      "type": "function",
      "constant": true
    },
    {
      "inputs": [],
      "name": "symbol",
      "outputs": [
        {
          "internalType": "string",
          "name": "",
          "type": "string"
        }
      ],
      "stateMutability": "view",
      "type": "function",
      "constant": true
    },
    {
      "inputs": [
        {
          "internalType": "uint256",
          "name": "tokenId",
          "type": "uint256"
        }
      ],
      "name": "tokenURI",
      "outputs": [
        {
          "internalType": "string",
          "name": "",
          "type": "string"
        }
      ],
      "stateMutability": "view",
      "type": "function",
      "constant": true
    },
    {
      "inputs": [
        {
          "internalType": "address",
          "name": "from",
          "type": "address"
        },
        {
          "internalType": "address",
          "name": "to",
          "type": "address"
        },
        {
          "internalType": "uint256",
          "name": "tokenId",
          "type": "uint256"
        }
      ],
      "name": "transferFrom",
      "outputs": [],
      "stateMutability": "nonpayable",
      "type": "function"
    },
    {
      "inputs": [
        {
          "internalType": "address",
          "name": "newOwner",
          "type": "address"
        }
      ],
      "name": "transferOwnership",
      "outputs": [],
      "stateMutability": "nonpayable",
      "type": "function"
    },
    {
      "inputs": [
        {
          "internalType": "uint256",
          "name": "_fee",
          "type": "uint256"
        }
      ],
      "name": "updateFee",
      "outputs": [],
      "stateMutability": "nonpayable",
      "type": "function"
    },
    {
      "inputs": [],
      "name": "withdraw",
      "outputs": [],
      "stateMutability": "payable",
      "type": "function",
      "payable": true
    },
    {
      "inputs": [
        {
          "internalType": "string",
          "name": "_name",
          "type": "string"
        }
      ],
      "name": "createRandomLip",
      "outputs": [],
      "stateMutability": "payable",
      "type": "function",
      "payable": true
    },
    {
      "inputs": [],
      "name": "getLips",
      "outputs": [
        {
          "components": [
            {
              "internalType": "string",
              "name": "name",
              "type": "string"
            },
            {
              "internalType": "uint256",
              "name": "id",
              "type": "uint256"
            },
            {
              "internalType": "uint256",
              "name": "dna",
              "type": "uint256"
            },
            {
              "internalType": "uint8",
              "name": "level",
              "type": "uint8"
            },
            {
              "internalType": "uint8",
              "name": "rarity",
              "type": "uint8"
            }
          ],
          "internalType": "struct LipToken.Lip[]",
          "name": "",
          "type": "tuple[]"
        }
      ],
      "stateMutability": "view",
      "type": "function",
      "constant": true
    }
  ],
  "bytecode": "0x6080604052670de0b6b3a76400006008553480156200001d57600080fd5b50604051620021a8380380620021a883398101604081905262000040916200023b565b81518290829062000059906000906020850190620000ea565b5080516200006f906001906020840190620000ea565b5050506200008c620000866200009460201b60201c565b62000098565b5050620002f5565b3390565b600680546001600160a01b038381166001600160a01b0319831681179093556040519116919082907f8be0079c531659141344cd1fd0a4f28419497f9722a3daafe3b4186f6b6457e090600090a35050565b828054620000f890620002a2565b90600052602060002090601f0160209004810192826200011c576000855562000167565b82601f106200013757805160ff191683800117855562000167565b8280016001018555821562000167579182015b82811115620001675782518255916020019190600101906200014a565b506200017592915062000179565b5090565b5b808211156200017557600081556001016200017a565b600082601f830112620001a1578081fd5b81516001600160401b0380821115620001be57620001be620002df565b6040516020601f8401601f1916820181018381118382101715620001e657620001e6620002df565b6040528382528584018101871015620001fd578485fd5b8492505b8383101562000220578583018101518284018201529182019162000201565b838311156200023157848185840101525b5095945050505050565b600080604083850312156200024e578182fd5b82516001600160401b038082111562000265578384fd5b620002738683870162000190565b9350602085015191508082111562000289578283fd5b50620002988582860162000190565b9150509250929050565b600281046001821680620002b757607f821691505b60208210811415620002d957634e487b7160e01b600052602260045260246000fd5b50919050565b634e487b7160e01b600052604160045260246000fd5b611ea380620003056000396000f3fe60806040526004361061012a5760003560e01c806370a08231116100ab57806395d89b411161006f57806395d89b411461031b578063a22cb46514610330578063b88d4fde14610350578063c87b56dd14610370578063e985e9c514610390578063f2fde38b146103b05761012a565b806370a0823114610282578063715018a6146102af57806383b5daf7146102c45780638da5cb5b146102e65780639012c4a8146102fb5761012a565b80633ccfd60b116100f25780633ccfd60b146101f657806342842e0e146101fe5780635ec163db1461021e5780636352211e1461024f578063698d640c1461026f5761012a565b806301ffc9a71461012f57806306fdde0314610165578063081812fc14610187578063095ea7b3146101b457806323b872dd146101d6575b600080fd5b34801561013b57600080fd5b5061014f61014a366004611633565b6103d0565b60405161015c9190611830565b60405180910390f35b34801561017157600080fd5b5061017a610418565b60405161015c919061183b565b34801561019357600080fd5b506101a76101a23660046116b1565b6104aa565b60405161015c9190611744565b3480156101c057600080fd5b506101d46101cf36600461160a565b6104f6565b005b3480156101e257600080fd5b506101d46101f136600461151c565b61058e565b6101d46105c6565b34801561020a57600080fd5b506101d461021936600461151c565b61064b565b34801561022a57600080fd5b5061023e6102393660046116b1565b610666565b60405161015c95949392919061184e565b34801561025b57600080fd5b506101a761026a3660046116b1565b61073c565b6101d461027d36600461166b565b610771565b34801561028e57600080fd5b506102a261029d3660046114d0565b61079e565b60405161015c9190611d25565b3480156102bb57600080fd5b506101d46107e2565b3480156102d057600080fd5b506102d961082d565b60405161015c9190611795565b3480156102f257600080fd5b506101a7610953565b34801561030757600080fd5b506101d46103163660046116b1565b610962565b34801561032757600080fd5b5061017a6109a6565b34801561033c57600080fd5b506101d461034b3660046115d0565b6109b5565b34801561035c57600080fd5b506101d461036b366004611557565b6109c7565b34801561037c57600080fd5b5061017a61038b3660046116b1565b610a06565b34801561039c57600080fd5b5061014f6103ab3660046114ea565b610a89565b3480156103bc57600080fd5b506101d46103cb3660046114d0565b610ab7565b60006001600160e01b031982166380ac58cd60e01b148061040157506001600160e01b03198216635b5e139f60e01b145b80610410575061041082610b25565b90505b919050565b60606000805461042790611dab565b80601f016020809104026020016040519081016040528092919081815260200182805461045390611dab565b80156104a05780601f10610475576101008083540402835291602001916104a0565b820191906000526020600020905b81548152906001019060200180831161048357829003601f168201915b5050505050905090565b60006104b582610b3e565b6104da5760405162461bcd60e51b81526004016104d190611b7a565b60405180910390fd5b506000908152600460205260409020546001600160a01b031690565b60006105018261073c565b9050806001600160a01b0316836001600160a01b031614156105355760405162461bcd60e51b81526004016104d190611c93565b806001600160a01b0316610547610b5b565b6001600160a01b031614806105635750610563816103ab610b5b565b61057f5760405162461bcd60e51b81526004016104d190611a55565b6105898383610b5f565b505050565b61059f610599610b5b565b82610bcd565b6105bb5760405162461bcd60e51b81526004016104d190611cd4565b610589838383610c52565b6105ce610b5b565b6001600160a01b03166105df610953565b6001600160a01b0316146106055760405162461bcd60e51b81526004016104d190611bc6565b600061060f610953565b6040519091506001600160a01b038216904780156108fc02916000818181858888f19350505050158015610647573d6000803e3d6000fd5b5050565b610589838383604051806020016040528060008152506109c7565b6009818154811061067657600080fd5b906000526020600020906004020160009150905080600001805461069990611dab565b80601f01602080910402602001604051908101604052809291908181526020018280546106c590611dab565b80156107125780601f106106e757610100808354040283529160200191610712565b820191906000526020600020905b8154815290600101906020018083116106f557829003601f168201915b50505050600183015460028401546003909401549293909290915060ff8082169161010090041685565b6000818152600260205260408120546001600160a01b0316806104105760405162461bcd60e51b81526004016104d190611afc565b60085434146107925760405162461bcd60e51b81526004016104d190611888565b61079b81610d7f565b50565b60006001600160a01b0382166107c65760405162461bcd60e51b81526004016104d190611ab2565b506001600160a01b031660009081526003602052604090205490565b6107ea610b5b565b6001600160a01b03166107fb610953565b6001600160a01b0316146108215760405162461bcd60e51b81526004016104d190611bc6565b61082b6000610ed4565b565b60606009805480602002602001604051908101604052809291908181526020016000905b8282101561094a57838290600052602060002090600402016040518060a001604052908160008201805461088490611dab565b80601f01602080910402602001604051908101604052809291908181526020018280546108b090611dab565b80156108fd5780601f106108d2576101008083540402835291602001916108fd565b820191906000526020600020905b8154815290600101906020018083116108e057829003601f168201915b50505091835250506001828101546020808401919091526002840154604084015260039093015460ff80821660608501526101009091041660809092019190915291835292019101610851565b50505050905090565b6006546001600160a01b031690565b61096a610b5b565b6001600160a01b031661097b610953565b6001600160a01b0316146109a15760405162461bcd60e51b81526004016104d190611bc6565b600855565b60606001805461042790611dab565b6106476109c0610b5b565b8383610f26565b6109d86109d2610b5b565b83610bcd565b6109f45760405162461bcd60e51b81526004016104d190611cd4565b610a0084848484610fc9565b50505050565b6060610a1182610b3e565b610a2d5760405162461bcd60e51b81526004016104d190611c44565b6000610a37610ffc565b90506000815111610a575760405180602001604052806000815250610a82565b80610a618461100e565b604051602001610a729291906116f5565b6040516020818303038152906040525b9392505050565b6001600160a01b03918216600090815260056020908152604080832093909416825291909152205460ff1690565b610abf610b5b565b6001600160a01b0316610ad0610953565b6001600160a01b031614610af65760405162461bcd60e51b81526004016104d190611bc6565b6001600160a01b038116610b1c5760405162461bcd60e51b81526004016104d190611911565b61079b81610ed4565b6001600160e01b031981166301ffc9a760e01b14919050565b6000908152600260205260409020546001600160a01b0316151590565b3390565b600081815260046020526040902080546001600160a01b0319166001600160a01b0384169081179091558190610b948261073c565b6001600160a01b03167f8c5be1e5ebec7d5bd14f71427d1e84f3dd0314c0f7b2291e5b200ac8c7c3b92560405160405180910390a45050565b6000610bd882610b3e565b610bf45760405162461bcd60e51b81526004016104d190611a09565b6000610bff8361073c565b9050806001600160a01b0316846001600160a01b03161480610c3a5750836001600160a01b0316610c2f846104aa565b6001600160a01b0316145b80610c4a5750610c4a8185610a89565b949350505050565b826001600160a01b0316610c658261073c565b6001600160a01b031614610c8b5760405162461bcd60e51b81526004016104d190611bfb565b6001600160a01b038216610cb15760405162461bcd60e51b81526004016104d19061198e565b610cbc838383610589565b610cc7600082610b5f565b6001600160a01b0383166000908152600360205260408120805460019290610cf0908490611d68565b90915550506001600160a01b0382166000908152600360205260408120805460019290610d1e908490611d3c565b909155505060008181526002602052604080822080546001600160a01b0319166001600160a01b0386811691821790925591518493918716917fddf252ad1be2c89b69c2b068fc378daa952ba7f163c4a11628f55a4df523b3ef91a4505050565b6000610d8b6064611129565b90506000610d9f662386f26fc10000611129565b6040805160a08101825285815260075460208083019190915291810183905260016060820181905260ff86166080830152600980549182018155600052815180519495509193849360049092027f6e1540171b6c0c960b71a7020d9f60077f6af931a8bbf590da0223dacf75c7af0192610e1d9284929101906113b0565b50602082015160018201556040820151600282015560608201516003909101805460809093015160ff9081166101000261ff00199190931660ff199094169390931792909216179055600754610e74903390611163565b336001600160a01b03167f24d2d558f98bdd9d21339e119fc0b03e213c7d05affd838ac2ee136d90e3bbeb60075484604051610eb1929190611d2e565b60405180910390a260078054906000610ec983611de6565b919050555050505050565b600680546001600160a01b038381166001600160a01b0319831681179093556040519116919082907f8be0079c531659141344cd1fd0a4f28419497f9722a3daafe3b4186f6b6457e090600090a35050565b816001600160a01b0316836001600160a01b03161415610f585760405162461bcd60e51b81526004016104d1906119d2565b6001600160a01b0383811660008181526005602090815260408083209487168084529490915290819020805460ff1916851515179055517f17307eab39ab6107e8899845ad3d59bd9653f200f220920489ca2b5937696c3190610fbc908590611830565b60405180910390a3505050565b610fd4848484610c52565b610fe08484848461117d565b610a005760405162461bcd60e51b81526004016104d1906118bf565b60408051602081019091526000815290565b60608161103357506040805180820190915260018152600360fc1b6020820152610413565b8160005b811561105d578061104781611de6565b91506110569050600a83611d54565b9150611037565b60008167ffffffffffffffff81111561108657634e487b7160e01b600052604160045260246000fd5b6040519080825280601f01601f1916602001820160405280156110b0576020820181803683370190505b5090505b8415610c4a576110c5600183611d68565b91506110d2600a86611e01565b6110dd906030611d3c565b60f81b81838151811061110057634e487b7160e01b600052603260045260246000fd5b60200101906001600160f81b031916908160001a905350611122600a86611d54565b94506110b4565b600080423360405160200161113f929190611724565b60408051601f1981840301815291905280516020909101209050610a828382611e01565b610647828260405180602001604052806000815250611298565b6000611191846001600160a01b03166112cb565b1561128d57836001600160a01b031663150b7a026111ad610b5b565b8786866040518563ffffffff1660e01b81526004016111cf9493929190611758565b602060405180830381600087803b1580156111e957600080fd5b505af1925050508015611219575060408051601f3d908101601f191682019092526112169181019061164f565b60015b611273573d808015611247576040519150601f19603f3d011682016040523d82523d6000602084013e61124c565b606091505b50805161126b5760405162461bcd60e51b81526004016104d1906118bf565b805181602001fd5b6001600160e01b031916630a85bd0160e11b149050610c4a565b506001949350505050565b6112a283836112d1565b6112af600084848461117d565b6105895760405162461bcd60e51b81526004016104d1906118bf565b3b151590565b6001600160a01b0382166112f75760405162461bcd60e51b81526004016104d190611b45565b61130081610b3e565b1561131d5760405162461bcd60e51b81526004016104d190611957565b61132960008383610589565b6001600160a01b0382166000908152600360205260408120805460019290611352908490611d3c565b909155505060008181526002602052604080822080546001600160a01b0319166001600160a01b03861690811790915590518392907fddf252ad1be2c89b69c2b068fc378daa952ba7f163c4a11628f55a4df523b3ef908290a45050565b8280546113bc90611dab565b90600052602060002090601f0160209004810192826113de5760008555611424565b82601f106113f757805160ff1916838001178555611424565b82800160010185558215611424579182015b82811115611424578251825591602001919060010190611409565b50611430929150611434565b5090565b5b808211156114305760008155600101611435565b600067ffffffffffffffff8084111561146457611464611e41565b604051601f8501601f19168101602001828111828210171561148857611488611e41565b6040528481529150818385018610156114a057600080fd5b8484602083013760006020868301015250509392505050565b80356001600160a01b038116811461041357600080fd5b6000602082840312156114e1578081fd5b610a82826114b9565b600080604083850312156114fc578081fd5b611505836114b9565b9150611513602084016114b9565b90509250929050565b600080600060608486031215611530578081fd5b611539846114b9565b9250611547602085016114b9565b9150604084013590509250925092565b6000806000806080858703121561156c578081fd5b611575856114b9565b9350611583602086016114b9565b925060408501359150606085013567ffffffffffffffff8111156115a5578182fd5b8501601f810187136115b5578182fd5b6115c487823560208401611449565b91505092959194509250565b600080604083850312156115e2578182fd5b6115eb836114b9565b9150602083013580151581146115ff578182fd5b809150509250929050565b6000806040838503121561161c578182fd5b611625836114b9565b946020939093013593505050565b600060208284031215611644578081fd5b8135610a8281611e57565b600060208284031215611660578081fd5b8151610a8281611e57565b60006020828403121561167c578081fd5b813567ffffffffffffffff811115611692578182fd5b8201601f810184136116a2578182fd5b610c4a84823560208401611449565b6000602082840312156116c2578081fd5b5035919050565b600081518084526116e1816020860160208601611d7f565b601f01601f19169290920160200192915050565b60008351611707818460208801611d7f565b83519083019061171b818360208801611d7f565b01949350505050565b91825260601b6bffffffffffffffffffffffff1916602082015260340190565b6001600160a01b0391909116815260200190565b6001600160a01b038581168252841660208201526040810183905260806060820181905260009061178b908301846116c9565b9695505050505050565b60208082528251828201819052600091906040908185019080840286018301878501865b8381101561182257603f19898403018552815160a081518186526117df828701826116c9565b838b0151878c0152898401518a88015260608085015160ff90811691890191909152608094850151169390960192909252505093860193908601906001016117b9565b509098975050505050505050565b901515815260200190565b600060208252610a8260208301846116c9565b600060a0825261186160a08301886116c9565b602083019690965250604081019390935260ff918216606084015216608090910152919050565b60208082526018908201527f4e6f7420656e6f756768206d6f6e657920666f72206665650000000000000000604082015260600190565b60208082526032908201527f4552433732313a207472616e7366657220746f206e6f6e20455243373231526560408201527131b2b4bb32b91034b6b83632b6b2b73a32b960711b606082015260800190565b60208082526026908201527f4f776e61626c653a206e6577206f776e657220697320746865207a65726f206160408201526564647265737360d01b606082015260800190565b6020808252601c908201527f4552433732313a20746f6b656e20616c7265616479206d696e74656400000000604082015260600190565b60208082526024908201527f4552433732313a207472616e7366657220746f20746865207a65726f206164646040820152637265737360e01b606082015260800190565b60208082526019908201527f4552433732313a20617070726f766520746f2063616c6c657200000000000000604082015260600190565b6020808252602c908201527f4552433732313a206f70657261746f7220717565727920666f72206e6f6e657860408201526b34b9ba32b73a103a37b5b2b760a11b606082015260800190565b60208082526038908201527f4552433732313a20617070726f76652063616c6c6572206973206e6f74206f7760408201527f6e6572206e6f7220617070726f76656420666f7220616c6c0000000000000000606082015260800190565b6020808252602a908201527f4552433732313a2062616c616e636520717565727920666f7220746865207a65604082015269726f206164647265737360b01b606082015260800190565b60208082526029908201527f4552433732313a206f776e657220717565727920666f72206e6f6e657869737460408201526832b73a103a37b5b2b760b91b606082015260800190565b6020808252818101527f4552433732313a206d696e7420746f20746865207a65726f2061646472657373604082015260600190565b6020808252602c908201527f4552433732313a20617070726f76656420717565727920666f72206e6f6e657860408201526b34b9ba32b73a103a37b5b2b760a11b606082015260800190565b6020808252818101527f4f776e61626c653a2063616c6c6572206973206e6f7420746865206f776e6572604082015260600190565b60208082526029908201527f4552433732313a207472616e73666572206f6620746f6b656e2074686174206960408201526839903737ba1037bbb760b91b606082015260800190565b6020808252602f908201527f4552433732314d657461646174613a2055524920717565727920666f72206e6f60408201526e3732bc34b9ba32b73a103a37b5b2b760891b606082015260800190565b60208082526021908201527f4552433732313a20617070726f76616c20746f2063757272656e74206f776e656040820152603960f91b606082015260800190565b60208082526031908201527f4552433732313a207472616e736665722063616c6c6572206973206e6f74206f6040820152701ddb995c881b9bdc88185c1c1c9bdd9959607a1b606082015260800190565b90815260200190565b918252602082015260400190565b60008219821115611d4f57611d4f611e15565b500190565b600082611d6357611d63611e2b565b500490565b600082821015611d7a57611d7a611e15565b500390565b60005b83811015611d9a578181015183820152602001611d82565b83811115610a005750506000910152565b600281046001821680611dbf57607f821691505b60208210811415611de057634e487b7160e01b600052602260045260246000fd5b50919050565b6000600019821415611dfa57611dfa611e15565b5060010190565b600082611e1057611e10611e2b565b500690565b634e487b7160e01b600052601160045260246000fd5b634e487b7160e01b600052601260045260246000fd5b634e487b7160e01b600052604160045260246000fd5b6001600160e01b03198116811461079b57600080fdfea2646970667358221220c10cda55bec26d70fc7568695b16225934f14cd3573a266d862d5cdab6acf85d64736f6c63430008000033",
  "immutableReferences": {},
  "source": "// SPDX-License-Identifier: MIT\r\npragma solidity ^0.8.0;\r\n\r\nimport \"@openzeppelin/contracts/token/ERC721/ERC721.sol\";\r\nimport \"@openzeppelin/contracts/access/Ownable.sol\";\r\n\r\ncontract LipToken is ERC721, Ownable {\r\n    uint256 COUNTER;\r\n    uint256 fee = 1 ether;\r\n\r\n    struct Lip {\r\n        string name;\r\n        uint256 id;\r\n        uint256 dna;\r\n        uint8 level;\r\n        uint8 rarity;\r\n    }\r\n\r\n    Lip[] public lips;\r\n\r\n    event NewLip(address indexed owner, uint256 id, uint256 dna);\r\n\r\n    constructor(string memory _name, string memory _symbol)\r\n        ERC721(_name, _symbol)\r\n    {}\r\n\r\n    // Helpers\r\n\r\n    function _createRandomNum(uint256 _mod) internal view returns (uint256) {\r\n        uint256 randomNum = uint256(\r\n            keccak256(abi.encodePacked(block.timestamp, msg.sender))\r\n        );\r\n        return randomNum % _mod;\r\n    }\r\n\r\n    function updateFee(uint256 _fee) external onlyOwner {\r\n        fee = _fee;\r\n    }\r\n\r\n    function withdraw() external payable onlyOwner {\r\n        address _owner = owner();\r\n        payable(_owner).transfer(address(this).balance);\r\n    }\r\n\r\n    //Creation\r\n\r\n    function _createLip(string memory _name) internal {\r\n        uint8 randRarity = uint8(_createRandomNum(100));\r\n        uint256 randDna = _createRandomNum(10**16);\r\n        Lip memory newLip = Lip(_name, COUNTER, randDna, 1, randRarity);\r\n        lips.push(newLip);\r\n        _safeMint(msg.sender, COUNTER);\r\n\r\n        emit NewLip(msg.sender, COUNTER, randDna);\r\n        COUNTER++;\r\n    }\r\n\r\n    function createRandomLip(string memory _name) public payable {\r\n        require(msg.value == fee, \"Not enough money for fee\");\r\n        _createLip(_name);\r\n    }\r\n\r\n    // Check\r\n    function getLips() public view returns (Lip[] memory) {\r\n        return lips;\r\n    }\r\n}\r\n",
  "sourcePath": "C:\\Users\\bamba\\nft_game\\contracts\\LipToken.sol",
  "compiler": {
    "name": "solc",
    "version": "0.8.0+commit.c7dfd78e.Emscripten.clang"
  },
  "schemaVersion": "3.4.4",
  "updatedAt": "2022-01-31T18:44:05.347Z",
  "networkType": "ethereum",
  "devdoc": {
    "kind": "dev",
    "methods": {
      "approve(address,uint256)": {
        "details": "See {IERC721-approve}."
      },
      "balanceOf(address)": {
        "details": "See {IERC721-balanceOf}."
      },
      "getApproved(uint256)": {
        "details": "See {IERC721-getApproved}."
      },
      "isApprovedForAll(address,address)": {
        "details": "See {IERC721-isApprovedForAll}."
      },
      "name()": {
        "details": "See {IERC721Metadata-name}."
      },
      "owner()": {
        "details": "Returns the address of the current owner."
      },
      "ownerOf(uint256)": {
        "details": "See {IERC721-ownerOf}."
      },
      "renounceOwnership()": {
        "details": "Leaves the contract without owner. It will not be possible to call `onlyOwner` functions anymore. Can only be called by the current owner. NOTE: Renouncing ownership will leave the contract without an owner, thereby removing any functionality that is only available to the owner."
      },
      "safeTransferFrom(address,address,uint256)": {
        "details": "See {IERC721-safeTransferFrom}."
      },
      "safeTransferFrom(address,address,uint256,bytes)": {
        "details": "See {IERC721-safeTransferFrom}."
      },
      "setApprovalForAll(address,bool)": {
        "details": "See {IERC721-setApprovalForAll}."
      },
      "supportsInterface(bytes4)": {
        "details": "See {IERC165-supportsInterface}."
      },
      "symbol()": {
        "details": "See {IERC721Metadata-symbol}."
      },
      "tokenURI(uint256)": {
        "details": "See {IERC721Metadata-tokenURI}."
      },
      "transferFrom(address,address,uint256)": {
        "details": "See {IERC721-transferFrom}."
      },
      "transferOwnership(address)": {
        "details": "Transfers ownership of the contract to a new account (`newOwner`). Can only be called by the current owner."
      }
    },
    "version": 1
  },
  "userdoc": {
    "kind": "user",
    "methods": {},
    "version": 1
  }
}